:100000000C943E000C9453000C9453000C94530039
:100010000C9453000C9453000C9453000C94530014
:100020000C9453000C9453000C9453000C94530004
:100030000C9453000C9453000C9453000C945300F4
:100040000C9453000C9453000C9453000C945300E4
:100050000C9453000C9453000C9453000C945300D4
:100060000C9453000C9453000C9453000C945300C4
:100070000C9453000C9453000C94530011241FBE95
:10008000CFEFD0E1DEBFCDBF11E0A0E0B1E0E2EE06
:10009000F0E002C005900D92AA30B107D9F70E9496
:1000A00055000C946F000C94000017B8479A8FEF1E
:1000B00081B98091000182B920E030E03799FECF0C
:1000C0002F5F3F4F2A30310514F020E030E0F90176
:1000D000E050FF4F808182B9379BFECFEFCFF8947D
:0200E000FFCF50
:0A00E200FC60DAF266B6BEE0FEF63E
:00000001FF
