:100000000C943E000C9452000C9481000C9450000F
:100010000C9450000C9450000C9450000C94500020
:100020000C9450000C9450000C9450000C94500010
:100030000C9450000C9450000C9450000C94500000
:100040000C9450000C9450000C9450000C945000F0
:100050000C9450000C9450000C9450000C945000E0
:100060000C9450000C9450000C9450000C945000D0
:100070000C9450000C9450000C94500011241FBE9E
:10008000CFEFD0E1DEBFCDBF11E0A0E0B1E001C015
:100090001D92A130B107E1F70E94B0000C9401015C
:1000A0000C9400001F920F920FB60F9211248F93A1
:1000B000AF93BF93EF93FF93DF93CF93CDB7DEB7AB
:1000C000A5E2B0E0E5E2F0E0808180688C93809169
:1000D0000001882329F08091000181508093000164
:1000E000E2E2F0E0809100018083CF91DF91FF9107
:1000F000EF91BF91AF918F910F900FBE0F901F9016
:1001000018951F920F920FB60F9211248F93AF93F1
:10011000BF93EF93FF93DF93CF93CDB7DEB7A5E205
:10012000B0E0E5E2F0E080818F778C938091000170
:100130008F3F29F0809100018F5F80930001E2E200
:10014000F0E0809100018083CF91DF91FF91EF91EA
:10015000BF91AF918F910F900FBE0F901F90189588
:10016000DF93CF93CDB7DEB710920001E1E2F0E06C
:100170008FEF8083E2E2F0E01082A4E2B0E0E4E2FC
:10018000F0E0808180688C93AAE2B0E0EAE2F0E0DF
:1001900080818B7F8C93AAE2B0E0EAE2F0E080817C
:1001A000877F8C93ABE2B0E0EBE2F0E0808184608B
:1001B0008C93ABE2B0E0EBE2F0E0808188608C935E
:1001C000A9E6B0E0E9E6F0E0808182608C93A9E6E0
:1001D000B0E0E9E6F0E0808188608C93ADE3B0E0C8
:1001E000EDE3F0E0808181608C93ADE3B0E0EDE37E
:1001F000F0E0808182608C937894E2E2F0E01082FB
:06020000FFCFF894FFCFD0
:00000001FF
