:100000000C943E000C9448000C9448000C9448005A
:100010000C9448000C9448000C9448000C94480040
:100020000C9448000C9448000C9448000C94480030
:100030000C9448000C944A000C9448000C9448001E
:100040000C9448000C9448000C9448000C94480010
:100050000C9448000C9448000C9448000C94480000
:100060000C9448000C9448000C9448000C944800F0
:100070000C9448000C9448000C94480011241FBEB6
:10008000CFEFD0E1DEBFCDBF0E9455000C946F00D2
:100090000C9400001F920F920FB60F9211241F9A1A
:1000A0000F900FBE0F901F901895279A1092800006
:1000B00080918100886080938100809181008460BC
:1000C000809381008EE399E4909389008093880067
:1000D00080916F00826080936F007894FFCFF894D6
:0200E000FFCF50
:00000001FF
