:100000000C943E000C9448000C9448000C9448005A
:100010000C9448000C9448000C9448000C94480040
:100020000C9448000C9448000C9448000C94480030
:100030000C9448000C9448000C9448000C94480020
:100040000C9448000C9448000C9448000C94480010
:100050000C9448000C9448000C9448000C94480000
:100060000C9448000C9448000C9448000C944800F0
:100070000C9448000C9448000C94480011241FBEB6
:10008000CFEFD0E1DEBFCDBF0E9466000C94BC0074
:100090000C9400001F9A0895559A81E48093800083
:1000A00081E18093810008959C01220F331F220F6C
:1000B000331F40E050E060E07BE187EB90E00E947E
:1000C0007F0030938900209388000895CF93DF93B9
:1000D000279A559A81E48093800081E18093810082
:1000E000CCE2D1E01F9A86E091E00E94540080EAC1
:1000F0009FE0FE013197F1F70197D9F7F3CF97FB16
:10010000092E05260ED057FD04D014D00AD0001CAD
:1001100038F450954095309521953F4F4F4F5F4FA4
:100120000895F6F790958095709561957F4F8F4F64
:100130009F4F0895A1E21A2EAA1BBB1BFD010DC003
:10014000AA1FBB1FEE1FFF1FA217B307E407F50787
:1001500020F0A21BB30BE40BF50B661F771F881F63
:10016000991F1A9469F760957095809590959B01F9
:0C017000AC01BD01CF010895F894FFCF51
:00000001FF
