:100000000C943E000C9450000C9450000C94500042
:100010000C9450000C9450000C9450000C94500020
:100020000C9450000C9450000C9450000C94500010
:100030000C9450000C9450000C9450000C94500000
:100040000C9450000C9450000C9450000C945000F0
:100050000C9450000C9450000C9450000C945000E0
:100060000C9450000C9450000C9450000C945000D0
:100070000C9450000C9450000C94500011241FBE9E
:10008000CFEFD0E1DEBFCDBF11E0A0E0B1E001C015
:100090001D92A430B107E1F70E946C000C94B500EA
:1000A0000C940000559A81E48093800081E1809354
:1000B000810008959C01220F331F220F331F40E05F
:1000C00050E060E07BE187EB90E00E9478003093A5
:1000D0008900209388000895559A81E480938000D8
:1000E00081E18093810080EA9FE00E945A00FBCF6B
:1000F00097FB092E05260ED057FD04D014D00AD048
:10010000001C38F450954095309521953F4F4F4F46
:100110005F4F0895F6F790958095709561957F4FA4
:100120008F4F9F4F0895A1E21A2EAA1BBB1BFD0102
:100130000DC0AA1FBB1FEE1FFF1FA217B307E407C6
:10014000F50720F0A21BB30BE40BF50B661F771F1E
:10015000881F991F1A9469F76095709580959095FE
:0E0160009B01AC01BD01CF010895F894FFCFC3
:00000001FF
