:100000000C943E000C9453000C9453000C94530039
:100010000C9453000C9453000C9453000C94530014
:100020000C9453000C9453000C9453000C94530004
:100030000C9453000C9453000C9453000C945300F4
:100040000C9453000C9453000C9453000C945300E4
:100050000C9453000C9453000C9453000C945300D4
:100060000C9453000C9453000C9453000C945300C4
:100070000C9453000C9453000C94530011241FBE95
:10008000CFEFD0E1DEBFCDBF11E0A0E0B1E0E2EE06
:10009000F0E002C005900D92AA30B107D9F70E9496
:1000A00055000C946F000C9400008FEF81B920E094
:1000B00030E04CE251E0F901E050FF4F808182B91D
:1000C00080E49FE1FA013197F1F70197D9F72F5FAB
:1000D0003F4F2A3031057CF320E030E0ECCFF8943C
:0200E000FFCF50
:0A00E200FC60DAF266B6BEE0FEF63E
:00000001FF
