:100000000C943E000C9453000C9453000C94530039
:100010000C9453000C9453000C9453000C94530014
:100020000C9453000C9453000C9453000C94530004
:100030000C9453000C9453000C9453000C945300F4
:100040000C9453000C9453000C9453000C945300E4
:100050000C9453000C9453000C9453000C945300D4
:100060000C9453000C9453000C9453000C945300C4
:100070000C9453000C9453000C94530011241FBE95
:10008000CFEFD0E1DEBFCDBF11E0A0E0B1E0EEE107
:10009000F1E002C005900D92AA30B107D9F70E9495
:1000A00055000C948D000C94000017B88FEF88B9A0
:1000B00081B98091000182B920E030E048EB5BE03B
:1000C000309912C03199FECF2F5F3F4F2A30310552
:1000D00014F020E030E0F901E050FF4F808182B958
:1000E000309BFECF319BFECF319913C03099FECFAC
:1000F000215030408FEF2F3F380711F429E030E0D6
:10010000F901E050FF4F808182B9319BFECF309BD7
:0E011000FECFCA010197F1F7D3CFF894FFCFCD
:0A011E00FC60DAF266B6BEE0FEF601
:00000001FF
