:100000000C943E000C9453000C9453000C94530039
:100010000C9453000C9453000C9453000C94530014
:100020000C9453000C9453000C9453000C94530004
:100030000C9453000C9453000C9453000C945300F4
:100040000C9453000C9453000C9453000C945300E4
:100050000C9453000C9453000C9453000C945300D4
:100060000C9453000C9453000C9453000C945300C4
:100070000C9453000C9453000C94530011241FBE95
:10008000CFEFD0E1DEBFCDBF11E0A0E0B1E0EEECFC
:10009000F1E002C005900D92A639B107D9F70E9490
:1000A0006F000C94E5000C940000559A81E4809355
:1000B000800081E18093810008959C01220F331F0D
:1000C000220F331F40E050E060E07BE187EB90E0DF
:1000D0000E94A800309389002093880008950F9310
:1000E0001F93CF93DF93559A81E48093800081E141
:1000F00080938100CAE1D0E00CE211E011C0FE0162
:10010000EE0FFF1FE050FF4F808191810E945D0044
:1001100088E893E1F8013197F1F70197D9F7219633
:10012000CB34D10564F3C4E9D1E0888199810E9480
:100130005D0088E893E1F8013197F1F70197D9F76D
:10014000229781E0C433D80781F7CAE1D0E0E8CF35
:1001500097FB092E05260ED057FD04D014D00AD0E7
:10016000001C38F450954095309521953F4F4F4FE6
:100170005F4F0895F6F790958095709561957F4F44
:100180008F4F9F4F0895A1E21A2EAA1BBB1BFD01A2
:100190000DC0AA1FBB1FEE1FFF1FA217B307E40766
:1001A000F50720F0A21BB30BE40BF50B661F771FBE
:1001B000881F991F1A9469F760957095809590959E
:0E01C0009B01AC01BD01CF010895F894FFCF63
:1001CE003E004100450049004E00520057005C00C1
:1001DE00620068006E0075007B0083008B00930048
:1001EE009C00A500AF00B900C400D000DC00E900FF
:1001FE00F70006011501260137014A015D01720162
:10020E0088019F01B801D201EE010B022A024B02B6
:10021E006E029302BA02E40210033F037003A403BA
:10022E00DC03170455049704DD0427057505C8057E
:10023E0020067D06E0064907B8072D08A9082D09F6
:10024E00B9094D0AEA0A900B400CFA0CC00D910E3A
:06025E006F0F5A1053114E
:00000001FF
