:100000000C943E000C9448000C9448000C9448005A
:100010000C9448000C9448000C9448000C94480040
:100020000C9448000C9448000C9448000C94480030
:100030000C9448000C9448000C9448000C94480020
:100040000C9448000C9448000C9448000C94480010
:100050000C9448000C9448000C9448000C94480000
:100060000C9448000C9448000C9448000C944800F0
:100070000C9448000C9448000C94480011241FBEB6
:10008000CFEFD0E1DEBFCDBF0E944A000C94A200AA
:100090000C9400001F93CF93DF930E94900080E0A8
:1000A0000E94760080E00E946C0080E49FE12CE2D8
:1000B00031E0F9013197F1F70197D9F710E0C8EB7A
:1000C000DBE0812F0E947600812F0E946C00CE0120
:1000D0000197F1F71F5FF5CF1F93182F80E10E9462
:1000E0009800812F0E9498001F9108951F93182F48
:1000F00080E00E949800812F0E9498001F9108952F
:1001000084E10E949800089588E10E949800089573
:1001100084E00E949800089588E00E949800089565
:100120000E949300089580EB84B981E58CBD089509
:100130008EBD0DB407FEFDCF08950DB407FEFDCFB3
:080140008EB50895F894FFCF7D
:00000001FF
