:100000000C943E000C9448000C9448000C9448005A
:100010000C9448000C9448000C9448000C94480040
:100020000C9448000C9448000C9448000C94480030
:100030000C9448000C9448000C9448000C94480020
:100040000C9448000C9448000C9448000C94480010
:100050000C9448000C9448000C9448000C94480000
:100060000C9448000C9448000C9448000C944800F0
:100070000C9448000C9448000C94480011241FBEB6
:10008000CFEFD0E1DEBFCDBF0E944A000C946B00E1
:100090000C9400008AB1806C8AB982E58093B0002C
:1000A00081E08093B1008FEF8093B3008093B40020
:1000B000FBCF8AB1806C8AB982E58093B00081E081
:1000C0008093B10008958FEF8093B30008958FEF70
:0A00D0008093B4000895F894FFCF68
:00000001FF
