:100000000C943E000C9453000C9453000C94530039
:100010000C9453000C9453000C9453000C94530014
:100020000C9453000C9453000C9453000C94530004
:100030000C9453000C9453000C9453000C945300F4
:100040000C9453000C9453000C9453000C945300E4
:100050000C9453000C9453000C9453000C945300D4
:100060000C9453000C9453000C9453000C945300C4
:100070000C9453000C9453000C94530011241FBE95
:10008000CFEFD0E1DEBFCDBF11E0A0E0B1E0E8E40A
:10009000F1E002C005900D92AA30B107D9F70E9495
:1000A00064000C94A2000C94000020E030E048EBC7
:1000B0005BE0009ACA010197F1F72F5F3F4F81E0A3
:1000C00020393807B1F708950F931F93CF93DF932B
:1000D00017B88FEF88B981B98091000182B9C0E06B
:1000E000D0E008EB1BE0309913C03199FECF219688
:1000F000CA30D10514F0C0E0D0E0FE01E050FF4F5F
:10010000808182B90E945500309BFECF319BFECF8B
:10011000319914C03099FECF21978FEFCF3FD80788
:1001200011F4C9E0D0E0FE01E050FF4F808182B9B8
:100130000E945500319BFECF309BFECFC801019736
:08014000F1F7D1CFF894FFCFD5
:0A014800FC60DAF266B6BEE0FEF6D7
:00000001FF
